:100000005AC0E9C173C072C071C070C06FC06EC009
:100010006DC01BC36BC06AC069C068C067C066C0E2
:1000200065C064C063C00902220001010080190993
:100030000400000103010200092101010001223234
:10004000000705810308000A1201100100000008E2
:100050006D0432C30001010200010A0347003500AC
:10006000300032001C034C006F0067006900740010
:10007000650063006800200049006E0063002E00E8
:100080000403090405010902A1010901A1000509F0
:1000900019012903150025019503750181029501B8
:1000A000750581030501093009311581257F750822
:1000B00095028106C0C011241FBECFE5D4E0DEBF8B
:1000C000CDBF10E0A0E6B0E0E0E9F7E002C00590A7
:1000D0000D92A63AB107D9F720E0A6EAB0E001C038
:1000E0001D92AF3DB207E1F71CD344C389CFCF9334
:1000F000C62F2091A80024FF1CC02091A90038E839
:1001000023272093A900EAEAF0E09C01D9012F5FA0
:100110003F4F9C9191939C2F921B980F1916B4F30B
:100120006C2F8AEA90E053D1CC5FC093A800CF91A6
:1001300008952AE52093A800E6CFEF92FF920F934F
:100140001F93CF93DF938091C100835087FF5CC0E2
:100150008091610084FF04C0809160008F3F81F432
:1001600094E103C09A9509F444C086B38370811565
:10017000C9F3DF91CF911F910F91FF90EF900895F8
:10018000682F893008F051C0982F961B909360001B
:100190009091B40028E892279093B400C4E0C60F71
:1001A0008115C9F14091A6005091A7008091DC0013
:1001B00086FF69C00FEF060F10E07A01E60EF11C12
:1001C000FA0185EB90E02491DC012C9301963196A5
:1001D000EE15FF05C1F74F5F5F4F400F511F509362
:1001E000A7004093A60085EB90E0F1D0CC30D1F091
:1001F00016C01092C3001092C400DF91CF911F91DE
:100200000F91FF90EF9008959091BF009D3279F08B
:100210001092C1009DCF60E085EB90E0D8D08FEFC9
:1002200080936000C09361009BCF68E0ADCF8830C1
:1002300079F78091C500CCE0D0E0C81BD109CA5342
:10024000DF4F83EC8093B4008AE5809361001092C5
:10025000DC008881807681112CC09A811092BD00CB
:10026000E981EC3048F12DEB30E03093A70020938A
:10027000A6009F81911104C09E81981708F4892FD0
:1002800080936000C5CFE5EBF0E0EE24EA94E60E43
:10029000F12C8A01060F111DCA01DC0101962C9177
:1002A000219380179107C9F74F5F5F4F4E0D5F1D78
:1002B00096CFCE0124D2DDCFF0E0E454FC4F099478
:1002C0009BE49093A900CFCF2DEB30E081E0CDCF20
:1002D0009093C200C8CF2B81213079F1223029F1CF
:1002E0002330A9F02132C9F1223279F190E49093C0
:1002F000DC00BFCF9093C300B6CF1092BE002DEBB1
:1003000030E082E0B2CF22EC30E081E0AECF911558
:10031000A1F1913051F1923049F78AE590E0909344
:10032000A7008093A6008AE0E1CF86E290E0909358
:10033000A7008093A60082E2D9CF88E490E0909352
:10034000A7008093A60082E1D1CF84E890E090934B
:10035000A7008093A60082E3C9CF88E390E0909342
:10036000A7008093A60089E0C1CF84E690E0909337
:10037000A7008093A6008CE1B9CF80E890E090932D
:10038000A7008093A60084E0B1CF85B7836085BFC6
:100390008BB780648BBFE8EAF0E08BE481838AE569
:1003A00080830895A82FB92F80E090E041E050EAC3
:1003B000609530E009C02D9182279795879510F0C0
:1003C00084279527305EC8F36F5FA8F30895EADFAE
:1003D0008D939D930895CF93CFB7CF93C395B09B43
:1003E000E9F7B09B09C0B09B07C0B09B05C0B09BAC
:1003F00003C0B09B01C0A3C0DF93C091C500DD273F
:10040000CA53DF4FB09B02C0DF91EBCF2F930F9306
:100410001F9306B32FEF00FB20F94F933F9316B3C2
:100420004FEF012700FB21F93BE031C04E7F012F48
:1004300016B3216028C0102F4D7F2260000006B344
:1004400029C04B7F2460012F000016B32BC016B3C8
:10045000477F28602AC04F7E06B320612CC04F7DA5
:1004600016B320622FC04F7B06B3206432C04227F0
:1004700006B349934FEF0000102710FB20F916B385
:100480001370C9F1297F91F2012700FB21F906B30E
:10049000237F89F2315058F1102710FB22F916B34F
:1004A000277E79F2012700FB23F92F7C81F206B326
:1004B000102710FB24F92F7971F200C016B3012721
:1004C00000FB25F92F7359F200C006B3102710FB6B
:1004D00026F9223040F200C016B3012700FB27F9AD
:1004E000243028F64F77206816B30000F9CF10E4C7
:1004F0001ABF002719C03B503195C31BD04010E4F0
:100500001ABF0881033CF9F00B34E9F02091C400D4
:100510001981110F1213EDCF4A81441F093641F1A1
:100520000D3211F0013E29F70093C0003F914F9129
:100530001F910F912F91DF91CAB7C6FD4FCFCF9179
:10054000CFBFCF9118952091C000222379F310914D
:10055000C100112369F534306AF13093C100209352
:10056000BF001091C5003BE0311B3093C50022C095
:100570000091C1000130E4F40AE54F7049F4309174
:10058000610034FD19C000936100C4EBD0E018C0D5
:100590003091A80034FD10C00093A800C9EAD0E053
:1005A0000FC02795A8F45150A9F4220F0000F9CFED
:1005B0004AE503C042ED01C0432FC4E1D0E032E080
:1005C00017B31360C09A17BB08B320E413E05F931E
:1005D000012756E008BB279520F4515021F4220F43
:1005E000F9CF012756E000003B5A08BBD0F227950F
:1005F00028F4515029F4220F0000F9CF012756E0CA
:10060000279508BB20F4515021F4220FF9CF012780
:1006100056E02991332308BB21F60C7F1091C300CB
:10062000110FC651D04008BB11F01093C40010E464
:100630001ABF016017B31C7F402F4C7F5F9100C031
:1006400000C008BB17BB48BB71CF0F920FB60F920B
:100650001F9211242F933F938F939F93EF93FF93B8
:1006600081E08093DE009091DD00E1E0E90FE0930E
:10067000DD009F5B8E2F8F73E7FD2DC097FD34C08B
:10068000E095EF7321E0322FF0E0EB59FF4F9081BE
:10069000E82FF0E0EB59FF4F808185958595859592
:1006A0008595829F802D112480936300892F8595E5
:1006B000859585958595839F802D11248093640071
:1006C000FF91EF919F918F913F912F911F900F90EC
:1006D0000FBE0F90189597FD0EC0E82F9FE3981B53
:1006E000892F31E02FEFD0CFE82F9FE3981B892F80
:1006F0003FEF21E0C9CFEFE3E81B2FEFC4CFFC01B0
:1007000082E690E09093A7008093A6008081807697
:10071000803211F080E0089581818130D9F783E043
:10072000089512BA18BA8BEF81BB8FEF87BB17BA47
:1007300083E084BB8EEF85BB9A9918C083B7856030
:1007400083BF89B7816089BF20DE7894F6DC809111
:10075000DE008115D9F38091A80084FFF7CF1092B5
:10076000DE0063E082E690E0C2DCF0CF83B7846015
:1007700083BFE7CFF894FFCFC0CD75CD74CD73CDD7
:1007800072CDB8CDA8CD6FCDBECDA2CD9DCD98CD2B
:10079000FF5A000101000306090C0F1215181C1F57
:1007A0002225282B2E303336393C3F414447494CD3
:1007B0004E515355585A5C5E60626466686A6C6D4F
:1007C0006F70727374767778797A7B7C7C7D7E7EAD
:0607D0007F7F7F7F7F00A8
:00000001FF
